:040000008231772AA8
:100008007E1480312000111C6F280D3021009D00C6
:100018002000E001D90A0319DA0A21005C0820004F
:10002800A10021005B082000A000A009A109200868
:1000380096002108970000305A023D3003195902F2
:10004800031C29285C0803192B2821009D14200073
:10005800111006280D3021009D0020000030E0011D
:100068005A023D3003195902031C40280A30210066
:10007800DB070318DC0A4C2800305A023C3003190D
:10008800590203184C2801302100DB020030DC3B08
:1000980021005C082000A10021005B082000A000CE
:1000A800A009A10920089600210897003D305D02AB
:1000B8000318602821009D148F3162278031D901EF
:1000C800D90ADA012100D001D1012000DC01270082
:1000D8009912200011102700991E7D282E28200033
:1000E8001530DB0A5B06031D7B281030DB00270078
:1000F8009310931C3B2A73286008031D92281D3017
:1001080021009D003908B3003808B2001C08B90066
:100118001B08B8002000E001E00AA228600BA5280F
:10012800153021009D003B08B5003A08B4001C08B2
:10013800BB001B08BA0002302000E00021009D141B
:10014800312A02306006031D312A0D3021009D003E
:100158003D08B7003C08B6001C08BD001B08BC00E1
:1001680003302000E0005C080319CC29AA012A35D5
:10017800B23E860087012A35B83E84008501403F9B
:100188000002A0000131413F003BA1002008A2006D
:100198002108A3000030A31BFF30A400A5002408F9
:1001A800A5002308A4002208A300A2012508210015
:1001B800C500200024082100C400200023082100D5
:1001C800C300200022082100C20020002A080907D5
:1001D8000907383E860001308700403F2100C207EA
:1001E800413FC33D423FC43D433FC53D4208200017
:1001F800A000210043082000A1002100440820009D
:10020800A200210045082000A3000830A400A3375D
:10021800A20CA10CA00CA40B0B2921004208200061
:10022800A500210043082000A60021004408200062
:10023800A700210045082000A8002008A5022108E1
:10024800A63B2208A73B2308A83B2A080907090759
:10025800383E8600013087002508C03F2608C13F88
:100268002708C23F2808C33F2A0809070907383E5C
:100278008600403F2100C600413FC700423FC800FA
:10028800433FC90002302000A0002100C937C80C34
:10029800C70CC60C2000A00B492921004908F4000E
:1002A8004808F3004708F2004608F1004908F8003A
:1002B8004808F7004708F6004608F5008631D226B8
:1002C80080317408C1007308C0007208BF0071084B
:1002D800BE000C30C136C00CBF0CBE0C890B6E2999
:1002E80020002A08090709072C3E860001308700EC
:1002F80021003E08810741313F08813D41314008D6
:10030800813D41314108813D20000330AA0A2A027B
:10031800031CBB282100CE0A0319CF0AB8304E06A9
:100328000B3003194F06031D312A2000A9012908A3
:10033800090709072C3E860001308700403FA000CE
:10034800413FA100423FA200433FA30029080907FB
:100358000907203E86002008C03F2108C13F220827
:10036800C23F2308C33F2908090709072C3E860016
:100378000030C03FC13FC23FC33F0330A90A290232
:10038800031C9B292100CE01CF010130D400312A62
:10039800AB012B35B83E86008701403FF100413F55
:1003A800F2000030F107FE30F23D2B08563E860081
:1003B8008830A10001082D3CA000031CA1035907A7
:1003C800840021085A3D85000008F30086316B2619
:1003D800803120002B082B072B07A93E86008701B8
:1003E8007108810741317208813D41317308813DAF
:1003F8002B35B83E86008701403FF100413FF200AF
:100408000030F107FE30F23D2B08563E860088305A
:10041800A10001082C3CA000031CA103590784007B
:1004280021085A3D85000008F30086316B2680318B
:1004380020002B082B072B07A03E86008701710898
:10044800810741317208813D41317308813D033094
:10045800AB0A2B02031CCD29DD0A2700991E392A75
:1004680001302100DB020030DC3B200011132000AA
:10047800111B8028111E582A2100111E582A2300FA
:100488009E1C582A20005E088C3E86002130870179
:10049800873D010823009A002000DE0A5E085F06F7
:1004A800031D582A210011122000921C752A0130C0
:1004B8002100CA070030CB3DCC3DCD3DD00A031901
:1004C800D10A22005F085E045D045C040319722AE5
:1004D8000130DC020030DD3BDE3BDF3B20009210C8
:1004E800582A7E1009008231792A1430D601D700A3
:1004F8002830D8000130D9001430DA01DB0021009F
:100508005C30DB000A30DC008C3084002130850050
:100518006430FE00FF018E3101268231FD0120008A
:10052800A030DC01DD01DE01DF01E00184000030E4
:1005380085003730FE00FF018E31012682312030E0
:100548008400013085004430FE00FF018E31012611
:1005580082317E102000B02A8F310C278231003082
:1005680051024B3003195002031C022B4B30D000B0
:10057800C430D101DB000930DC0001302000DC0090
:10058800210054080319022B8C302300A0002130CD
:10059800A100EA30A2008830A3002200230823002B
:1005A800A700220022082300A60022002108230019
:1005B800A500220020082300A40024308600013072
:1005C8008700403FA800413FA900423FAA00433F9F
:1005D800AB000830203E8600403FAC00413FAD00F4
:1005E800423FAE00433FAF00B830B0000B30B1001F
:1005F8000B2482312100D601D60AD40155080319EB
:10060800A92B8C302300A0002130A1008A30A20041
:100618008830A300220053082300A70022005208B4
:100628002300A600220051082300A500220050083C
:100638002300A400220047082300AB00220046083C
:100648002300AA00220045082300A900220044082C
:100658002300A8005430860001308700403FAC00DA
:10066800413FAD00423FAE00433FAF0048308600F7
:10067800403FB000413FB100423FB200433FB300AA
:1006880058308600403FB400413FB500423FB600B5
:10069800433FB7000830443E8600403FB800413F22
:1006A800B900423FBA00433FBB0021005308230072
:1006B800BD00210052082300BC0020005B08073958
:1006C8002300BE00BF010B2482312200D001D101DA
:1006D800D201D301C401C501C601C701D401D501A6
:1006E800D601D701C801C901CA01CB01D801D90176
:1006F800DA01DB01CC01CD01CE01CF012100D2010D
:10070800D30120005B1D8C2BD601D701D801A52B66
:10071800DB18992B1430D601D7002830D8005B1C81
:10072800A52B2830D7001430A42B0530D60019305B
:10073800D7002D30D8005B1CA52B2D30D7001930E1
:10074800D8002100D501D601D60A23009D1CAE2B66
:100758001D121D1620005F080319BA2B23009E1CCA
:10076800BA2B2100111ABA2B2000DF0121005608EC
:100778000319B32A8C302000AC002130AD008E3133
:10078800222682312D082100DA0020002C082100C1
:10079800D90020008C30AC01AD01AE002130AF0093
:1007A800210059082000B0008E31382682312D08EA
:1007B8002100D80020002C082100D7008C30200010
:1007C800D4002130D5002100590820005407230007
:1007D800A00021005A082000553D2300A100183030
:1007E800A2008930A300210058082300A500210099
:1007F80057082300A4000B24823121005908063E23
:100808002000DF00DE0164268231D601B32AA4303D
:100818002000CB00230023082000C3002300220867
:100828002000C2002300A20A0319A30A20004208DC
:100838008400430885000008D300530803194E2E8E
:10084800253053060319352C23002008860021087B
:1008580087002000530881002300A00A0319A10A79
:100868000E2CD001D101D2013F2C200052152300BB
:10087800A20A0319A30A230022088400230885007A
:100888000008303A0319392C492C2208840023081F
:100898008500000855268231031C882CD001D1011F
:1008A8000A30AC00AD015108AF005008AE008E31DF
:1008B8000D2682312D08D1002C08D00023002208F3
:1008C8008400230885000008D03E2000C200FF30C5
:1008D80003180030C3004208D0074308D13D230065
:1008E800A20A0319A30A2208840023088500000825
:1008F80055268231031C882C542C5216882CD2176A
:10090800A42CC030D204A42C230023082000C30048
:10091800230022082000C2002300A20A0319A30A08
:10092800200042088400430885000008D3008400A2
:100938007930040203180E2C87310435003E8200FA
:100948005208C039031DDC2C521EB92C4B088600F6
:1009580001308700403FCC00413FCD00423FCE00F0
:10096800433FCF000430CB07CC2C4B088600013026
:100978008700403FC200413FC3004208CC00430803
:10098800CD00890D893B8909CE00CF00CB0ACB0A5F
:10099800CF1F562D0330D204CC09CD09CE09CF097B
:1009A800CC0A0319CD0A0319CE0A0319CF0A562D0A
:1009B800521EED2C4B08860001308700403FCC00CA
:1009C800413FCD00423FCE00433FCF000430CB072C
:1009D800562D4B08860001308700403FC200413F3A
:1009E800C3004208CC004308CD00CE01CF01CB0A9A
:1009F800CB0A562DD301D30A5308C200C230C30113
:100A0800C235C30DC235C30D420784008830433D4B
:100A18008500003FC400013FC500023FC600033FF8
:100A2800C7004F02031D222D46084E02031D222D2A
:100A380045084D02031D222D44084C02031C612D5C
:100A48000A30D30A53060319612D002DD301D30AA6
:100A58005308C2006A30C301C235C30DC235C30D85
:100A6800420784008830433D8500003FC400013FB1
:100A7800C500023FC600033FC7004F02031D4E2DAD
:100A880046084E02031D4E2D45084D02031D4E2DEE
:100A980044084C02031C612D0830D30A530603197D
:100AA800612D2C2D5208C0390319FE2C803A0319E8
:100AB8002A2D403A0319FE2C612D500851040319C0
:100AC8006D2D5208033903196D2DFF30D007031C13
:100AD800D1035108803A803C031D742D50085302FD
:100AE80003187C2D20005308D002031CD1037F2D4E
:100AF8002000D001D101521DA42D52080339031939
:100B08008F2D230020088600210887002D308100C2
:100B1800A00A0319A10A2000500851040319C92D7D
:100B28002300200886002108870030308100A00AB1
:100B38000319A10AFF302000D007031CD103902D10
:100B4800500851040319BB2D2300200886002108F2
:100B5800870020308100A00A0319A10AFF30200075
:100B6800D007031CD10350085104031DA82D5208B7
:100B780003390319C92D230020088600210887009E
:100B88002D308100A00A0319A10A20005308C900CA
:100B9800CA01382E0A30B900BA01BB01BC014A08A3
:100BA800850049088400C2308435850D8435850D5B
:100BB80084078830853D003FAC00013FAD00023F0F
:100BC800AE00033FAF004F08B3004E08B2004D0817
:100BD800B1004C08B0008E31CD2682312F08C000FC
:100BE8002E08BF002D08BE002C08BD008E315826E7
:100BF80082313908303E2B2E4F08B3004E08B20020
:100C08004D08B1004C08B0004A0885004908840026
:100C18006A308435850D8435850D84078830853D97
:100C2800003FAC00013FAD00023FAE00033FAF0004
:100C38008E31CD2682312C08C8000F30C8054808EF
:100C4800073E840089300318013E85000008D30060
:100C5800230020088600210887002000530881000F
:100C68002300A00A0319A10AFF302000C907031CAA
:100C7800CA03490F422E4A0A03190E2C5208C039DA
:100C88000319CE2D803A0319002E403A0319CE2DB0
:100C98002C2E2C2E23002008860021088700810195
:100CA80008002000AD003A30AC012D020318622E76
:100CB80030302D02031C622EAC01AC0A2C0C08004B
:100CC800AC01AC0AAD018E318E2611160800F40174
:100CD800F501F601F601F5010310F001F21F7A2E75
:100CE800F209F109F10A0319F20AF00AF31F7F2E3B
:100CF800F309F30AF00A73087118F607F60CF40CF6
:100D0800F118F607F60CF40C7119F607F60CF40C4A
:100D1800F119F607F60CF40C711AF607F60CF40C38
:100D2800F11AF607F60CF40C711BF607F60CF40C26
:100D3800F11BF607F60CF40CF5017218F607F60C21
:100D4800F50CF218F607F60CF50C7219F607F60C06
:100D5800F50CF219F607F60CF50C721AF607F60CF4
:100D6800F50CF21AF607F60CF50C721BF607F60CE2
:100D7800F50CF21BF607F60CF50C701CCB2EF609D9
:100D8800F509F409F40A0319F50A0319F60A7408AF
:100D9800F1007508F2007608F3000800F901FA017D
:100DA800FB01FC01711CE02E7508F9077608FA3D75
:100DB8007708FB3D7808FC3DF535F60DF70DF80D85
:100DC800F436F30CF20CF10C740873047204710419
:100DD800031DD62E7C08F4007B08F3007A08F20085
:060DE8007908F10008008B
:100E000086314E2E84310E2C84310E2C84310E2CE2
:100E100084310E2C84310E2C84310E2C84310E2C16
:100E200084310E2C84310E2C84310E2C84310E2C06
:100E300084310E2C84310E2C84310E2C84310E2CF6
:100E400084310E2C84310E2C84310E2C84310E2CE6
:100E500084310E2C84310E2C84310E2C84310E2CD6
:100E600084310E2C84310E2C84310E2C84310E2CC6
:100E700084310E2C84310E2C84310E2C84310E2CB6
:100E800084310E2C84310E2C84310E2C84310E2CA6
:100E900084310E2C84310E2C84310E2C84310E2C96
:100EA00084310E2C84310E2C84310E2C84310E2C86
:100EB00084310E2C84310E2C84310E2C84310E2C76
:100EC00084310E2C84310E2C84310E2C84310E2C66
:100ED00084310E2C84310E2C84310E2C84310E2C56
:100EE00084310E2C84310E2C84310E2C84310E2C46
:100EF00084310E2C84310E2C84310E2C84310E2C36
:100F000084310E2C84310E2C84310E2C84310E2C25
:100F100084310E2C84310E2C84310E2C84310E2C15
:100F200084310E2C84310E2C84310E2C84310E2C05
:100F300084310E2C84310E2C84310E2C84310E2CF5
:100F400084310E2C84310E2C84310E2C84310E2CE5
:100F500084310E2C84310E2C84310E2C84310E2CD5
:100F600084310E2C84310E2C84310E2C84310E2CC5
:100F700084310E2C84310E2C84310E2C84310E2CB5
:100F800084310E2C84310E2C84310E2C84310E2CA5
:100F90008431A42C84310E2C84310E2C84310E2CFF
:100FA00084310E2C8431A42C84310E2C84310E2CEF
:100FB0008431812C84310E2C84310E2C84310E2C02
:100FC00084310E2C84310E2C84310E2C84310E2C65
:100FD00084310E2C8431852C84310E2C84310E2CDE
:100FE0008431832C003406340D34133419341F3407
:100FF00025342A342E343234363439343B343D34BB
:101000003E343E343E343D343B343934363432346D
:101010002E342A3425341F34193413340D34063455
:101020000034FA34F334ED34E734E134DB34D634CD
:10103000D234CE34CA34C734C534C334C234C234D3
:10104000C234C334C534C734CA34CE34D234D634AF
:10105000DB34E134E734ED34F334FA34003406346D
:101060000D34133419341F3425342A342E343234D9
:10107000363439343B343D343E343E343E343D34F2
:101080003B343934363432342E342A3425341F3448
:10109000193413340D3406340034FA34F334ED3497
:1010A000E734E134DB34D634D234CE34CA34C734F6
:1010B000C534C334C234C234C234C334C534C73473
:1010C000CA34CE34D234D634DB34E134E734ED34B0
:1010D000F334FA3401340034003400341034003472
:1010E000003400340034013400340034003410344F
:1010F000003400340034003401340034003400344F
:10110000103400340034003400340134003400342E
:10111000003410342F34313441343A3425346C34B3
:1011200064342034313442343A3425346C346434F9
:101130002034323441343A3425346C34643420342D
:10114000323442343A3425346C3464342034333409
:1011500041343A3425346C346434203433344234EA
:101160003A3425346C3464342034533441343A34C2
:10117000253475342034573449343A3425347534A1
:101180002134003401340034003400340A34003493
:10119000003400346434003400340034E834033460
:1011A000003400341034273400340034A034863442
:1011B00001340034403442340F34003480349634E7
:1011C000983400340034E134F53405340034CA3442
:1011D0009A343B342F34313452343A3425346C341D
:1011E00064342034323452343A3425346C34643428
:1011F0002034333452343A3425346C34643420345B
:10120000533441343A342534753421340034303485
:10121000313432343334343435343634373438348A
:101220003934613462346334643465346634003490
:0E12300025343034343478340D340A3400342C
:101C02006400013080010131FE020030FF3B7F0899
:101C12007E0403190034022EB001B1012C1C152ED2
:101C22002E08B0072F08B13DAE35AF0DAD36AC0C66
:101C32002C082D04031D0F2E3108AD003008AC0016
:101C420008002D08AF002C08AE002E0886002F08D1
:101C5200870001080319312EAE0A0319AF0A262E96
:101C62002C082E02AC002D082F3BAD000800B40159
:101C720030083402031808003408B100B2012E07FC
:101C8200860032082F3D87000108AC060830B300F9
:101C92002C1C522E0130AD36AC0CAC06A030AD0679
:101CA200542EAD36AC0CB30B492EB40A392E3C0877
:101CB2003B043A0439040319852EC101C10ABC1B35
:101CC200672EB935BA0DBB0DBC0D5F2E3C08400224
:101CD200031D752E3B083F02031D752E3A083E0276
:101CE200031D752E39083D02031C7F2E3908BD02E3
:101CF2003A08BE3B3B08BF3B3C08C03BBC36BB0C72
:101D0200BA0CB90CC10B672E4008BC003F08BB00DF
:101D12003E08BA003D08B900080021004D08200025
:101D2200B90021004C082000B80021004B08200017
:101D3200B70021004A082000B60020003608AE0095
:101D42003708AF003808B0003908B1002C08B200DB
:101D52002D08B300B401B5013208AE073308AF3D18
:101D62003408B03D3508B13D310821004D02031D54
:101D7200CA2E2000300821004C02031DCA2E20006A
:101D82002F0821004B02031DCA2E20002E0821001D
:101D92004A02031808009E2EB401B501B601B7012C
:101DA2002F082E042D042C040319032FB801B80A9E
:101DB200AF1BE02EAC35AD0DAE0DAF0DD82EB43548
:101DC200B50DB60DB70D2F083302031DF22E2E08E6
:101DD2003202031DF22E2D083102031DF22E2C08B1
:101DE2003002031CFD2E2C08B0022D08B13B2E0838
:101DF200B23B2F08B33B3414AF36AE0CAD0CAC0C77
:101E0200B80BE02E3708AF003608AE003508AD003B
:101E12003408AC00080022008C018E01123021002F
:101E22008C002A308E00103023008C001F308E0070
:101E320024008C0120308E00210095132700980089
:101E42000230910005303C00A40014303D009000A7
:101E52007030210099009030220098008030990063
:101E6200A03021009E000D309D00D2302A0091004A
:101E7200083023009F0090309D0024309E004430A3
:101E82009B009C012000990121005C082000AD000C
:101E920021005B082000AC00AC09AD092C089600BB
:101EA2002D089700013098007C30280096000730FA
:101EB200970021001117111492148B150B178B1711
:101EC200080021005508031DEB2F2908F1002A08FC
:101ED200F2002B08F3000030F31BFF30F40071080E
:101EE2002200D0077208D13D7308D23D7408D33D59
:101EF20021002008F1002108F2002208F30000303E
:101F0200F31BFF30F40071082200C4077208C53DBC
:101F12007308C63D7408C73D21002C08F1002D0846
:101F2200F2002E08F3000030F31BFF30F4007108BA
:101F32002200D4077208D53D7308D63D7408D73DF8
:101F420021002308F1002408F2002508F3000030E4
:101F5200F31BFF30F40071082200C8077208C93D64
:101F62007308CA3D7408CB3D21002F08F1003008E8
:101F7200F2003108F3000030F31BFF30F400710867
:101F82002200D8077208D93D7308DA3D7408DB3D98
:101F920021002608F1002708F2002808F30000308B
:101FA200F31BFF30F40071082200CC077208CD3D0C
:101FB2007308CE3D7408CF3D20005D082100D20792
:101FC2000318D30A3230FD0A7D02031CEB2FD50120
:101FD200D50AFD01A901AA01AB01A001A101A2013B
:101FE200AC01AD01AE01A301A401A501AF01B00195
:0E1FF200B101A601A701A8012000DD01080031
:020000040001F9
:04000E002439FF3F53
:00000001FF
